{
  "_format": "hh-sol-artifact-1",
  "contractName": "SecureFIRSystem",
  "sourceName": "contracts/SecureFIRSystem.sol",
  "abi": [
    {
      "inputs": [],
      "stateMutability": "nonpayable",
      "type": "constructor"
    },
    {
      "anonymous": false,
      "inputs": [
        {
          "indexed": true,
          "internalType": "uint256",
          "name": "firId",
          "type": "uint256"
        },
        {
          "indexed": false,
          "internalType": "string",
          "name": "cid",
          "type": "string"
        }
      ],
      "name": "EvidenceAdded",
      "type": "event"
    },
    {
      "anonymous": false,
      "inputs": [
        {
          "indexed": true,
          "internalType": "uint256",
          "name": "id",
          "type": "uint256"
        },
        {
          "indexed": true,
          "internalType": "address",
          "name": "officer",
          "type": "address"
        }
      ],
      "name": "FIRAssigned",
      "type": "event"
    },
    {
      "anonymous": false,
      "inputs": [
        {
          "indexed": true,
          "internalType": "uint256",
          "name": "id",
          "type": "uint256"
        },
        {
          "indexed": true,
          "internalType": "address",
          "name": "complainant",
          "type": "address"
        }
      ],
      "name": "FIRCreated",
      "type": "event"
    },
    {
      "anonymous": false,
      "inputs": [
        {
          "indexed": true,
          "internalType": "uint256",
          "name": "id",
          "type": "uint256"
        }
      ],
      "name": "FIRResolved",
      "type": "event"
    },
    {
      "anonymous": false,
      "inputs": [
        {
          "indexed": true,
          "internalType": "uint256",
          "name": "id",
          "type": "uint256"
        },
        {
          "indexed": false,
          "internalType": "string",
          "name": "update",
          "type": "string"
        }
      ],
      "name": "FIRUpdated",
      "type": "event"
    },
    {
      "inputs": [
        {
          "internalType": "uint256",
          "name": "firId",
          "type": "uint256"
        },
        {
          "internalType": "string",
          "name": "cid",
          "type": "string"
        }
      ],
      "name": "addEvidence",
      "outputs": [],
      "stateMutability": "nonpayable",
      "type": "function"
    },
    {
      "inputs": [
        {
          "internalType": "uint256",
          "name": "firId",
          "type": "uint256"
        },
        {
          "internalType": "string",
          "name": "update",
          "type": "string"
        }
      ],
      "name": "addFIRUpdate",
      "outputs": [],
      "stateMutability": "nonpayable",
      "type": "function"
    },
    {
      "inputs": [
        {
          "internalType": "address",
          "name": "officer",
          "type": "address"
        }
      ],
      "name": "addPoliceOfficer",
      "outputs": [],
      "stateMutability": "nonpayable",
      "type": "function"
    },
    {
      "inputs": [
        {
          "internalType": "uint256",
          "name": "firId",
          "type": "uint256"
        },
        {
          "internalType": "address",
          "name": "officer",
          "type": "address"
        }
      ],
      "name": "assignOfficerToFIR",
      "outputs": [],
      "stateMutability": "nonpayable",
      "type": "function"
    },
    {
      "inputs": [
        {
          "internalType": "string",
          "name": "_title",
          "type": "string"
        },
        {
          "internalType": "string",
          "name": "_description",
          "type": "string"
        },
        {
          "internalType": "string",
          "name": "_complainantName",
          "type": "string"
        },
        {
          "internalType": "string",
          "name": "_complainantContact",
          "type": "string"
        },
        {
          "internalType": "uint256",
          "name": "_incidentDate",
          "type": "uint256"
        },
        {
          "internalType": "string",
          "name": "_incidentLocation",
          "type": "string"
        },
        {
          "internalType": "string",
          "name": "_category",
          "type": "string"
        },
        {
          "internalType": "bool",
          "name": "_includeComplainantAccess",
          "type": "bool"
        },
        {
          "internalType": "string[]",
          "name": "_evidenceCids",
          "type": "string[]"
        }
      ],
      "name": "createFIR",
      "outputs": [],
      "stateMutability": "nonpayable",
      "type": "function"
    },
    {
      "inputs": [
        {
          "internalType": "uint256",
          "name": "firId",
          "type": "uint256"
        }
      ],
      "name": "getFIRDetails",
      "outputs": [
        {
          "internalType": "string",
          "name": "title",
          "type": "string"
        },
        {
          "internalType": "string",
          "name": "status",
          "type": "string"
        },
        {
          "internalType": "address",
          "name": "assignedOfficer",
          "type": "address"
        },
        {
          "internalType": "string[]",
          "name": "updates",
          "type": "string[]"
        }
      ],
      "stateMutability": "view",
      "type": "function"
    },
    {
      "inputs": [
        {
          "internalType": "uint256",
          "name": "firId",
          "type": "uint256"
        }
      ],
      "name": "getSensitiveFIRDetails",
      "outputs": [
        {
          "internalType": "string",
          "name": "description",
          "type": "string"
        },
        {
          "internalType": "string",
          "name": "complainantName",
          "type": "string"
        },
        {
          "internalType": "string",
          "name": "complainantContact",
          "type": "string"
        },
        {
          "internalType": "string",
          "name": "incidentLocation",
          "type": "string"
        },
        {
          "internalType": "string",
          "name": "category",
          "type": "string"
        },
        {
          "internalType": "string[]",
          "name": "evidenceCids",
          "type": "string[]"
        }
      ],
      "stateMutability": "view",
      "type": "function"
    },
    {
      "inputs": [],
      "name": "owner",
      "outputs": [
        {
          "internalType": "address",
          "name": "",
          "type": "address"
        }
      ],
      "stateMutability": "view",
      "type": "function"
    },
    {
      "inputs": [
        {
          "internalType": "address",
          "name": "",
          "type": "address"
        }
      ],
      "name": "policeOfficers",
      "outputs": [
        {
          "internalType": "bool",
          "name": "",
          "type": "bool"
        }
      ],
      "stateMutability": "view",
      "type": "function"
    },
    {
      "inputs": [
        {
          "internalType": "address",
          "name": "officer",
          "type": "address"
        }
      ],
      "name": "removePoliceOfficer",
      "outputs": [],
      "stateMutability": "nonpayable",
      "type": "function"
    },
    {
      "inputs": [
        {
          "internalType": "uint256",
          "name": "firId",
          "type": "uint256"
        }
      ],
      "name": "resolveFIR",
      "outputs": [],
      "stateMutability": "nonpayable",
      "type": "function"
    }
  ],
  "bytecode": "0x6080604052600160035534801561001557600080fd5b50336000806101000a81548173ffffffffffffffffffffffffffffffffffffffff021916908373ffffffffffffffffffffffffffffffffffffffff1602179055506124e9806100656000396000f3fe608060405234801561001057600080fd5b50600436106100a95760003560e01c80638da5cb5b116100715780638da5cb5b14610151578063adabfb981461016f578063b1e58b151461019f578063bd1b44ea146101bb578063c7dbfdb2146101d7578063df2546861461020c576100a9565b806319639fbb146100ae5780631c3665eb146100ca57806338fe1e11146100e65780633f2f3f3e14610119578063603c3bef14610135575b600080fd5b6100c860048036038101906100c391906116a3565b610228565b005b6100e460048036038101906100df919061184c565b610311565b005b61010060048036038101906100fb91906118a8565b61047d565b6040516101109493929190611a6f565b60405180910390f35b610133600480360381019061012e9190611be7565b610712565b005b61014f600480360381019061014a91906116a3565b6109c6565b005b610159610aaf565b6040516101669190611d75565b60405180910390f35b610189600480360381019061018491906116a3565b610ad3565b6040516101969190611d9f565b60405180910390f35b6101b960048036038101906101b491906118a8565b610af3565b005b6101d560048036038101906101d0919061184c565b610cd2565b005b6101f160048036038101906101ec91906118a8565b610dfa565b60405161020396959493929190611dba565b60405180910390f35b61022660048036038101906102219190611e45565b611222565b005b60008054906101000a900473ffffffffffffffffffffffffffffffffffffffff1673ffffffffffffffffffffffffffffffffffffffff163373ffffffffffffffffffffffffffffffffffffffff16146102b6576040517f08c379a00000000000000000000000000000000000000000000000000000000081526004016102ad90611ed1565b60405180910390fd5b6000600260008373ffffffffffffffffffffffffffffffffffffffff1673ffffffffffffffffffffffffffffffffffffffff16815260200190815260200160002060006101000a81548160ff02191690831515021790555050565b8161031c813361148f565b61035b576040517f08c379a000000000000000000000000000000000000000000000000000000000815260040161035290611f3d565b60405180910390fd5b600082511161039f576040517f08c379a000000000000000000000000000000000000000000000000000000000815260040161039690611fa9565b60405180910390fd5b600060016000858152602001908152602001600020905080600a0160149054906101000a900460ff1615610408576040517f08c379a00000000000000000000000000000000000000000000000000000000081526004016103ff90612015565b60405180910390fd5b80600c018390806001815401808255809150506001900390600052602060002001600090919091909150908161043e9190612241565b50837f09947d17be118669e63f4d9db1a748fae99ea74c5cbd9869ea3989b25a6098f28460405161046f9190612313565b60405180910390a250505050565b606080600060608461048f813361148f565b6104ce576040517f08c379a00000000000000000000000000000000000000000000000000000000081526004016104c590611f3d565b60405180910390fd5b6000600160008881526020019081526020016000209050806001018160080182600a0160009054906101000a900473ffffffffffffffffffffffffffffffffffffffff1683600b0183805461052290612064565b80601f016020809104026020016040519081016040528092919081815260200182805461054e90612064565b801561059b5780601f106105705761010080835404028352916020019161059b565b820191906000526020600020905b81548152906001019060200180831161057e57829003601f168201915b505050505093508280546105ae90612064565b80601f01602080910402602001604051908101604052809291908181526020018280546105da90612064565b80156106275780601f106105fc57610100808354040283529160200191610627565b820191906000526020600020905b81548152906001019060200180831161060a57829003601f168201915b5050505050925080805480602002602001604051908101604052809291908181526020016000905b828210156106fb57838290600052602060002001805461066e90612064565b80601f016020809104026020016040519081016040528092919081815260200182805461069a90612064565b80156106e75780601f106106bc576101008083540402835291602001916106e7565b820191906000526020600020905b8154815290600101906020018083116106ca57829003601f168201915b50505050508152602001906001019061064f565b505050509050955095509550955050509193509193565b600060016000600354815260200190815260200160002090506003548160000181905550898160010190816107479190612241565b50888160020190816107599190612241565b508781600301908161076b9190612241565b508681600401908161077d9190612241565b50858160050181905550848160060190816107989190612241565b50838160070190816107aa9190612241565b506040518060400160405280600a81526020017f52656769737465726564000000000000000000000000000000000000000000008152508160080190816107f19190612241565b50338160090160006101000a81548173ffffffffffffffffffffffffffffffffffffffff021916908373ffffffffffffffffffffffffffffffffffffffff160217905550600081600a0160146101000a81548160ff0219169083151502179055508181600c01908051906020019061086a929190611557565b5080600d0160008054906101000a900473ffffffffffffffffffffffffffffffffffffffff169080600181540180825580915050600190039060005260206000200160009091909190916101000a81548173ffffffffffffffffffffffffffffffffffffffff021916908373ffffffffffffffffffffffffffffffffffffffff160217905550821561095c5780600d01339080600181540180825580915050600190039060005260206000200160009091909190916101000a81548173ffffffffffffffffffffffffffffffffffffffff021916908373ffffffffffffffffffffffffffffffffffffffff1602179055505b3373ffffffffffffffffffffffffffffffffffffffff166003547f2437fa90b3a3463b16b51f891b6b48eb7b059e6f9af210d3159fa959d3de08db60405160405180910390a3600360008154809291906109b590612364565b919050555050505050505050505050565b60008054906101000a900473ffffffffffffffffffffffffffffffffffffffff1673ffffffffffffffffffffffffffffffffffffffff163373ffffffffffffffffffffffffffffffffffffffff1614610a54576040517f08c379a0000000000000000000000000000000000000000000000000000000008152600401610a4b90611ed1565b60405180910390fd5b6001600260008373ffffffffffffffffffffffffffffffffffffffff1673ffffffffffffffffffffffffffffffffffffffff16815260200190815260200160002060006101000a81548160ff02191690831515021790555050565b60008054906101000a900473ffffffffffffffffffffffffffffffffffffffff1681565b60026020528060005260406000206000915054906101000a900460ff1681565b80610afe813361148f565b610b3d576040517f08c379a0000000000000000000000000000000000000000000000000000000008152600401610b3490611f3d565b60405180910390fd5b60006001600084815260200190815260200160002090503373ffffffffffffffffffffffffffffffffffffffff1681600a0160009054906101000a900473ffffffffffffffffffffffffffffffffffffffff1673ffffffffffffffffffffffffffffffffffffffff161480610bfd575060008054906101000a900473ffffffffffffffffffffffffffffffffffffffff1673ffffffffffffffffffffffffffffffffffffffff163373ffffffffffffffffffffffffffffffffffffffff16145b610c3c576040517f08c379a0000000000000000000000000000000000000000000000000000000008152600401610c33906123f8565b60405180910390fd5b600181600a0160146101000a81548160ff0219169083151502179055506040518060400160405280600881526020017f5265736f6c766564000000000000000000000000000000000000000000000000815250816008019081610c9f9190612241565b50827fc8ee4ada39b8d921795aec8d46ee81ebba8e30df0adec8a21994ba08f1e67dac60405160405180910390a2505050565b81610cdd813361148f565b610d1c576040517f08c379a0000000000000000000000000000000000000000000000000000000008152600401610d1390611f3d565b60405180910390fd5b600060016000858152602001908152602001600020905080600a0160149054906101000a900460ff1615610d85576040517f08c379a0000000000000000000000000000000000000000000000000000000008152600401610d7c90612015565b60405180910390fd5b80600b0183908060018154018082558091505060019003906000526020600020016000909190919091509081610dbb9190612241565b50837fc06596f056a8ebd81203b2c15941aacc146f5713cb4f9637ffa43cba9f6aec8e84604051610dec9190612313565b60405180910390a250505050565b60608060608060608086610e0e813361148f565b610e4d576040517f08c379a0000000000000000000000000000000000000000000000000000000008152600401610e4490611f3d565b60405180910390fd5b6000600160008a81526020019081526020016000209050806002018160030182600401836006018460070185600c01858054610e8890612064565b80601f0160208091040260200160405190810160405280929190818152602001828054610eb490612064565b8015610f015780601f10610ed657610100808354040283529160200191610f01565b820191906000526020600020905b815481529060010190602001808311610ee457829003601f168201915b50505050509550848054610f1490612064565b80601f0160208091040260200160405190810160405280929190818152602001828054610f4090612064565b8015610f8d5780601f10610f6257610100808354040283529160200191610f8d565b820191906000526020600020905b815481529060010190602001808311610f7057829003601f168201915b50505050509450838054610fa090612064565b80601f0160208091040260200160405190810160405280929190818152602001828054610fcc90612064565b80156110195780601f10610fee57610100808354040283529160200191611019565b820191906000526020600020905b815481529060010190602001808311610ffc57829003601f168201915b5050505050935082805461102c90612064565b80601f016020809104026020016040519081016040528092919081815260200182805461105890612064565b80156110a55780601f1061107a576101008083540402835291602001916110a5565b820191906000526020600020905b81548152906001019060200180831161108857829003601f168201915b505050505092508180546110b890612064565b80601f01602080910402602001604051908101604052809291908181526020018280546110e490612064565b80156111315780601f1061110657610100808354040283529160200191611131565b820191906000526020600020905b81548152906001019060200180831161111457829003601f168201915b5050505050915080805480602002602001604051908101604052809291908181526020016000905b8282101561120557838290600052602060002001805461117890612064565b80601f01602080910402602001604051908101604052809291908181526020018280546111a490612064565b80156111f15780601f106111c6576101008083540402835291602001916111f1565b820191906000526020600020905b8154815290600101906020018083116111d457829003601f168201915b505050505081526020019060010190611159565b505050509050975097509750975097509750505091939550919395565b60008054906101000a900473ffffffffffffffffffffffffffffffffffffffff1673ffffffffffffffffffffffffffffffffffffffff163373ffffffffffffffffffffffffffffffffffffffff16146112b0576040517f08c379a00000000000000000000000000000000000000000000000000000000081526004016112a790611ed1565b60405180910390fd5b816112bb813361148f565b6112fa576040517f08c379a00000000000000000000000000000000000000000000000000000000081526004016112f190611f3d565b60405180910390fd5b600260008373ffffffffffffffffffffffffffffffffffffffff1673ffffffffffffffffffffffffffffffffffffffff16815260200190815260200160002060009054906101000a900460ff16611386576040517f08c379a000000000000000000000000000000000000000000000000000000000815260040161137d90612464565b60405180910390fd5b60006001600085815260200190815260200160002090508281600a0160006101000a81548173ffffffffffffffffffffffffffffffffffffffff021916908373ffffffffffffffffffffffffffffffffffffffff16021790555080600d01839080600181540180825580915050600190039060005260206000200160009091909190916101000a81548173ffffffffffffffffffffffffffffffffffffffff021916908373ffffffffffffffffffffffffffffffffffffffff1602179055508273ffffffffffffffffffffffffffffffffffffffff16847fa07f98f4674c3ba0a1e094dc52fec92931baa26493fd1c00c406952239d7ae5e60405160405180910390a350505050565b60008060016000858152602001908152602001600020905060005b81600d018054905081101561154a578373ffffffffffffffffffffffffffffffffffffffff1682600d0182815481106114e6576114e5612484565b5b9060005260206000200160009054906101000a900473ffffffffffffffffffffffffffffffffffffffff1673ffffffffffffffffffffffffffffffffffffffff160361153757600192505050611551565b808061154290612364565b9150506114aa565b5060009150505b92915050565b82805482825590600052602060002090810192821561159f579160200282015b8281111561159e57825182908161158e9190612241565b5091602001919060010190611577565b5b5090506115ac91906115b0565b5090565b5b808211156115d057600081816115c791906115d4565b506001016115b1565b5090565b5080546115e090612064565b6000825580601f106115f25750611611565b601f0160209004906000526020600020908101906116109190611614565b5b50565b5b8082111561162d576000816000905550600101611615565b5090565b6000604051905090565b600080fd5b600080fd5b600073ffffffffffffffffffffffffffffffffffffffff82169050919050565b600061167082611645565b9050919050565b61168081611665565b811461168b57600080fd5b50565b60008135905061169d81611677565b92915050565b6000602082840312156116b9576116b861163b565b5b60006116c78482850161168e565b91505092915050565b6000819050919050565b6116e3816116d0565b81146116ee57600080fd5b50565b600081359050611700816116da565b92915050565b600080fd5b600080fd5b6000601f19601f8301169050919050565b7f4e487b7100000000000000000000000000000000000000000000000000000000600052604160045260246000fd5b61175982611710565b810181811067ffffffffffffffff8211171561177857611777611721565b5b80604052505050565b600061178b611631565b90506117978282611750565b919050565b600067ffffffffffffffff8211156117b7576117b6611721565b5b6117c082611710565b9050602081019050919050565b82818337600083830152505050565b60006117ef6117ea8461179c565b611781565b90508281526020810184848401111561180b5761180a61170b565b5b6118168482856117cd565b509392505050565b600082601f83011261183357611832611706565b5b81356118438482602086016117dc565b91505092915050565b600080604083850312156118635761186261163b565b5b6000611871858286016116f1565b925050602083013567ffffffffffffffff81111561189257611891611640565b5b61189e8582860161181e565b9150509250929050565b6000602082840312156118be576118bd61163b565b5b60006118cc848285016116f1565b91505092915050565b600081519050919050565b600082825260208201905092915050565b60005b8381101561190f5780820151818401526020810190506118f4565b60008484015250505050565b6000611926826118d5565b61193081856118e0565b93506119408185602086016118f1565b61194981611710565b840191505092915050565b61195d81611665565b82525050565b600081519050919050565b600082825260208201905092915050565b6000819050602082019050919050565b600082825260208201905092915050565b60006119ab826118d5565b6119b5818561198f565b93506119c58185602086016118f1565b6119ce81611710565b840191505092915050565b60006119e583836119a0565b905092915050565b6000602082019050919050565b6000611a0582611963565b611a0f818561196e565b935083602082028501611a218561197f565b8060005b85811015611a5d5784840389528151611a3e85826119d9565b9450611a49836119ed565b925060208a01995050600181019050611a25565b50829750879550505050505092915050565b60006080820190508181036000830152611a89818761191b565b90508181036020830152611a9d818661191b565b9050611aac6040830185611954565b8181036060830152611abe81846119fa565b905095945050505050565b60008115159050919050565b611ade81611ac9565b8114611ae957600080fd5b50565b600081359050611afb81611ad5565b92915050565b600067ffffffffffffffff821115611b1c57611b1b611721565b5b602082029050602081019050919050565b600080fd5b6000611b45611b4084611b01565b611781565b90508083825260208201905060208402830185811115611b6857611b67611b2d565b5b835b81811015611baf57803567ffffffffffffffff811115611b8d57611b8c611706565b5b808601611b9a898261181e565b85526020850194505050602081019050611b6a565b5050509392505050565b600082601f830112611bce57611bcd611706565b5b8135611bde848260208601611b32565b91505092915050565b60008060008060008060008060006101208a8c031215611c0a57611c0961163b565b5b60008a013567ffffffffffffffff811115611c2857611c27611640565b5b611c348c828d0161181e565b99505060208a013567ffffffffffffffff811115611c5557611c54611640565b5b611c618c828d0161181e565b98505060408a013567ffffffffffffffff811115611c8257611c81611640565b5b611c8e8c828d0161181e565b97505060608a013567ffffffffffffffff811115611caf57611cae611640565b5b611cbb8c828d0161181e565b9650506080611ccc8c828d016116f1565b95505060a08a013567ffffffffffffffff811115611ced57611cec611640565b5b611cf98c828d0161181e565b94505060c08a013567ffffffffffffffff811115611d1a57611d19611640565b5b611d268c828d0161181e565b93505060e0611d378c828d01611aec565b9250506101008a013567ffffffffffffffff811115611d5957611d58611640565b5b611d658c828d01611bb9565b9150509295985092959850929598565b6000602082019050611d8a6000830184611954565b92915050565b611d9981611ac9565b82525050565b6000602082019050611db46000830184611d90565b92915050565b600060c0820190508181036000830152611dd4818961191b565b90508181036020830152611de8818861191b565b90508181036040830152611dfc818761191b565b90508181036060830152611e10818661191b565b90508181036080830152611e24818561191b565b905081810360a0830152611e3881846119fa565b9050979650505050505050565b60008060408385031215611e5c57611e5b61163b565b5b6000611e6a858286016116f1565b9250506020611e7b8582860161168e565b9150509250929050565b7f4e6f74206f776e65720000000000000000000000000000000000000000000000600082015250565b6000611ebb6009836118e0565b9150611ec682611e85565b602082019050919050565b60006020820190508181036000830152611eea81611eae565b9050919050565b7f556e617574686f72697a65642061636365737300000000000000000000000000600082015250565b6000611f276013836118e0565b9150611f3282611ef1565b602082019050919050565b60006020820190508181036000830152611f5681611f1a565b9050919050565b7f496e76616c696420434944000000000000000000000000000000000000000000600082015250565b6000611f93600b836118e0565b9150611f9e82611f5d565b602082019050919050565b60006020820190508181036000830152611fc281611f86565b9050919050565b7f464952206973207265736f6c7665640000000000000000000000000000000000600082015250565b6000611fff600f836118e0565b915061200a82611fc9565b602082019050919050565b6000602082019050818103600083015261202e81611ff2565b9050919050565b7f4e487b7100000000000000000000000000000000000000000000000000000000600052602260045260246000fd5b6000600282049050600182168061207c57607f821691505b60208210810361208f5761208e612035565b5b50919050565b60008190508160005260206000209050919050565b60006020601f8301049050919050565b600082821b905092915050565b6000600883026120f77fffffffffffffffffffffffffffffffffffffffffffffffffffffffffffffffff826120ba565b61210186836120ba565b95508019841693508086168417925050509392505050565b6000819050919050565b600061213e612139612134846116d0565b612119565b6116d0565b9050919050565b6000819050919050565b61215883612123565b61216c61216482612145565b8484546120c7565b825550505050565b600090565b612181612174565b61218c81848461214f565b505050565b5b818110156121b0576121a5600082612179565b600181019050612192565b5050565b601f8211156121f5576121c681612095565b6121cf846120aa565b810160208510156121de578190505b6121f26121ea856120aa565b830182612191565b50505b505050565b600082821c905092915050565b6000612218600019846008026121fa565b1980831691505092915050565b60006122318383612207565b9150826002028217905092915050565b61224a826118d5565b67ffffffffffffffff81111561226357612262611721565b5b61226d8254612064565b6122788282856121b4565b600060209050601f8311600181146122ab5760008415612299578287015190505b6122a38582612225565b86555061230b565b601f1984166122b986612095565b60005b828110156122e1578489015182556001820191506020850194506020810190506122bc565b868310156122fe57848901516122fa601f891682612207565b8355505b6001600288020188555050505b505050505050565b6000602082019050818103600083015261232d818461191b565b905092915050565b7f4e487b7100000000000000000000000000000000000000000000000000000000600052601160045260246000fd5b600061236f826116d0565b91507fffffffffffffffffffffffffffffffffffffffffffffffffffffffffffffffff82036123a1576123a0612335565b5b600182019050919050565b7f556e617574686f72697a65640000000000000000000000000000000000000000600082015250565b60006123e2600c836118e0565b91506123ed826123ac565b602082019050919050565b60006020820190508181036000830152612411816123d5565b9050919050565b7f496e76616c696420706f6c696365206f66666963657200000000000000000000600082015250565b600061244e6016836118e0565b915061245982612418565b602082019050919050565b6000602082019050818103600083015261247d81612441565b9050919050565b7f4e487b7100000000000000000000000000000000000000000000000000000000600052603260045260246000fdfea2646970667358221220ef54aec8579adefe9751009e7b765efbfda136d1bd6a0567fedb5c9ead5de0c664736f6c63430008130033",
  "linkReferences": {},
  "deployedLinkReferences": {}
}